{
  "_format": "hh-sol-artifact-1",
  "contractName": "Identity",
  "sourceName": "contracts/Identity.sol",
  "abi": [
    {
      "anonymous": false,
      "inputs": [
        {
          "indexed": true,
          "internalType": "address",
          "name": "user",
          "type": "address"
        },
        {
          "indexed": false,
          "internalType": "string",
          "name": "name",
          "type": "string"
        },
        {
          "indexed": false,
          "internalType": "string",
          "name": "email",
          "type": "string"
        },
        {
          "indexed": false,
          "internalType": "string",
          "name": "phone",
          "type": "string"
        }
      ],
      "name": "IdentityRegistered",
      "type": "event"
    },
    {
      "inputs": [
        {
          "internalType": "address",
          "name": "user",
          "type": "address"
        }
      ],
      "name": "getIdentity",
      "outputs": [
        {
          "internalType": "string",
          "name": "name",
          "type": "string"
        },
        {
          "internalType": "string",
          "name": "email",
          "type": "string"
        },
        {
          "internalType": "string",
          "name": "phone",
          "type": "string"
        }
      ],
      "stateMutability": "view",
      "type": "function"
    },
    {
      "inputs": [
        {
          "internalType": "string",
          "name": "name",
          "type": "string"
        },
        {
          "internalType": "string",
          "name": "email",
          "type": "string"
        },
        {
          "internalType": "string",
          "name": "phone",
          "type": "string"
        }
      ],
      "name": "registerIdentity",
      "outputs": [],
      "stateMutability": "nonpayable",
      "type": "function"
    }
  ],
  "bytecode": "0x608060405234801561001057600080fd5b50610a2c806100206000396000f3fe608060405234801561001057600080fd5b50600436106100365760003560e01c80632fea7b811461003b578063bdc95b321461006d575b600080fd5b61005560048036038101906100509190610648565b610089565b604051610064939291906107c1565b60405180910390f35b61008760048036038101906100829190610671565b61033a565b005b6060806060600160008573ffffffffffffffffffffffffffffffffffffffff1673ffffffffffffffffffffffffffffffffffffffff16815260200190815260200160002060009054906101000a900460ff1661011a576040517f08c379a00000000000000000000000000000000000000000000000000000000081526004016101119061080d565b60405180910390fd5b60008060008673ffffffffffffffffffffffffffffffffffffffff1673ffffffffffffffffffffffffffffffffffffffff1681526020019081526020016000206040518060600160405290816000820180546101759061093e565b80601f01602080910402602001604051908101604052809291908181526020018280546101a19061093e565b80156101ee5780601f106101c3576101008083540402835291602001916101ee565b820191906000526020600020905b8154815290600101906020018083116101d157829003601f168201915b505050505081526020016001820180546102079061093e565b80601f01602080910402602001604051908101604052809291908181526020018280546102339061093e565b80156102805780601f1061025557610100808354040283529160200191610280565b820191906000526020600020905b81548152906001019060200180831161026357829003601f168201915b505050505081526020016002820180546102999061093e565b80601f01602080910402602001604051908101604052809291908181526020018280546102c59061093e565b80156103125780601f106102e757610100808354040283529160200191610312565b820191906000526020600020905b8154815290600101906020018083116102f557829003601f168201915b5050505050815250509050806000015181602001518260400151935093509350509193909250565b600160003373ffffffffffffffffffffffffffffffffffffffff1673ffffffffffffffffffffffffffffffffffffffff16815260200190815260200160002060009054906101000a900460ff16156103c7576040517f08c379a00000000000000000000000000000000000000000000000000000000081526004016103be9061082d565b60405180910390fd5b6040518060600160405280848152602001838152602001828152506000803373ffffffffffffffffffffffffffffffffffffffff1673ffffffffffffffffffffffffffffffffffffffff168152602001908152602001600020600082015181600001908051906020019061043c929190610528565b506020820151816001019080519060200190610459929190610528565b506040820151816002019080519060200190610476929190610528565b5090505060018060003373ffffffffffffffffffffffffffffffffffffffff1673ffffffffffffffffffffffffffffffffffffffff16815260200190815260200160002060006101000a81548160ff0219169083151502179055503373ffffffffffffffffffffffffffffffffffffffff167f01b9c54f3367dcef6b36ad2742281e636b6406f2e9895adadc67194ad492d4d584848460405161051b939291906107c1565b60405180910390a2505050565b8280546105349061093e565b90600052602060002090601f016020900481019282610556576000855561059d565b82601f1061056f57805160ff191683800117855561059d565b8280016001018555821561059d579182015b8281111561059c578251825591602001919060010190610581565b5b5090506105aa91906105ae565b5090565b5b808211156105c75760008160009055506001016105af565b5090565b60006105de6105d98461087e565b61084d565b9050828152602081018484840111156105f657600080fd5b6106018482856108fc565b509392505050565b600081359050610618816109df565b92915050565b600082601f83011261062f57600080fd5b813561063f8482602086016105cb565b91505092915050565b60006020828403121561065a57600080fd5b600061066884828501610609565b91505092915050565b60008060006060848603121561068657600080fd5b600084013567ffffffffffffffff8111156106a057600080fd5b6106ac8682870161061e565b935050602084013567ffffffffffffffff8111156106c957600080fd5b6106d58682870161061e565b925050604084013567ffffffffffffffff8111156106f257600080fd5b6106fe8682870161061e565b9150509250925092565b6000610713826108ae565b61071d81856108b9565b935061072d81856020860161090b565b610736816109ce565b840191505092915050565b600061074e6018836108b9565b91507f4964656e74697479206e6f7420726567697374657265642e00000000000000006000830152602082019050919050565b600061078e601c836108b9565b91507f4964656e7469747920616c726561647920726567697374657265642e000000006000830152602082019050919050565b600060608201905081810360008301526107db8186610708565b905081810360208301526107ef8185610708565b905081810360408301526108038184610708565b9050949350505050565b6000602082019050818103600083015261082681610741565b9050919050565b6000602082019050818103600083015261084681610781565b9050919050565b6000604051905081810181811067ffffffffffffffff821117156108745761087361099f565b5b8060405250919050565b600067ffffffffffffffff8211156108995761089861099f565b5b601f19601f8301169050602081019050919050565b600081519050919050565b600082825260208201905092915050565b60006108d5826108dc565b9050919050565b600073ffffffffffffffffffffffffffffffffffffffff82169050919050565b82818337600083830152505050565b60005b8381101561092957808201518184015260208101905061090e565b83811115610938576000848401525b50505050565b6000600282049050600182168061095657607f821691505b6020821081141561096a57610969610970565b5b50919050565b7f4e487b7100000000000000000000000000000000000000000000000000000000600052602260045260246000fd5b7f4e487b7100000000000000000000000000000000000000000000000000000000600052604160045260246000fd5b6000601f19601f8301169050919050565b6109e8816108ca565b81146109f357600080fd5b5056fea264697066735822122026ef5dcdc3fb12ad663cc371eb5c9bd925928a2d391f648c0e90f458eed6e49564736f6c63430008000033",
  "linkReferences": {},
  "deployedLinkReferences": {}
}