{
  "_format": "hh-sol-artifact-1",
  "contractName": "Identity",
  "sourceName": "contracts/Identity.sol",
  "abi": [
    {
      "anonymous": false,
      "inputs": [
        {
          "indexed": true,
          "internalType": "address",
          "name": "user",
          "type": "address"
        },
        {
          "indexed": false,
          "internalType": "string",
          "name": "name",
          "type": "string"
        },
        {
          "indexed": false,
          "internalType": "string",
          "name": "email",
          "type": "string"
        },
        {
          "indexed": false,
          "internalType": "string",
          "name": "phone",
          "type": "string"
        }
      ],
      "name": "IdentityRegistered",
      "type": "event"
    },
    {
      "anonymous": false,
      "inputs": [
        {
          "indexed": true,
          "internalType": "address",
          "name": "user",
          "type": "address"
        },
        {
          "indexed": false,
          "internalType": "string",
          "name": "name",
          "type": "string"
        },
        {
          "indexed": false,
          "internalType": "string",
          "name": "email",
          "type": "string"
        },
        {
          "indexed": false,
          "internalType": "string",
          "name": "phone",
          "type": "string"
        }
      ],
      "name": "IdentityUpdated",
      "type": "event"
    },
    {
      "inputs": [
        {
          "internalType": "address",
          "name": "_user",
          "type": "address"
        }
      ],
      "name": "getIdentity",
      "outputs": [
        {
          "internalType": "string",
          "name": "",
          "type": "string"
        },
        {
          "internalType": "string",
          "name": "",
          "type": "string"
        },
        {
          "internalType": "string",
          "name": "",
          "type": "string"
        }
      ],
      "stateMutability": "view",
      "type": "function"
    },
    {
      "inputs": [
        {
          "internalType": "string",
          "name": "name",
          "type": "string"
        },
        {
          "internalType": "string",
          "name": "email",
          "type": "string"
        },
        {
          "internalType": "string",
          "name": "phone",
          "type": "string"
        }
      ],
      "name": "registerIdentity",
      "outputs": [],
      "stateMutability": "nonpayable",
      "type": "function"
    },
    {
      "inputs": [
        {
          "internalType": "string",
          "name": "name",
          "type": "string"
        },
        {
          "internalType": "string",
          "name": "email",
          "type": "string"
        },
        {
          "internalType": "string",
          "name": "phone",
          "type": "string"
        }
      ],
      "name": "updateIdentity",
      "outputs": [],
      "stateMutability": "nonpayable",
      "type": "function"
    }
  ],
  "bytecode": "0x608060405234801561001057600080fd5b50610b0e806100206000396000f3fe608060405234801561001057600080fd5b50600436106100415760003560e01c80632fea7b81146100465780639318ca6614610078578063bdc95b3214610094575b600080fd5b610060600480360381019061005b919061072a565b6100b0565b60405161006f939291906108a3565b60405180910390f35b610092600480360381019061008d9190610753565b6102d5565b005b6100ae60048036038101906100a99190610753565b610470565b005b606080606060008060008673ffffffffffffffffffffffffffffffffffffffff1673ffffffffffffffffffffffffffffffffffffffff16815260200190815260200160002060405180606001604052908160008201805461011090610a20565b80601f016020809104026020016040519081016040528092919081815260200182805461013c90610a20565b80156101895780601f1061015e57610100808354040283529160200191610189565b820191906000526020600020905b81548152906001019060200180831161016c57829003601f168201915b505050505081526020016001820180546101a290610a20565b80601f01602080910402602001604051908101604052809291908181526020018280546101ce90610a20565b801561021b5780601f106101f05761010080835404028352916020019161021b565b820191906000526020600020905b8154815290600101906020018083116101fe57829003601f168201915b5050505050815260200160028201805461023490610a20565b80601f016020809104026020016040519081016040528092919081815260200182805461026090610a20565b80156102ad5780601f10610282576101008083540402835291602001916102ad565b820191906000526020600020905b81548152906001019060200180831161029057829003601f168201915b5050505050815250509050806000015181602001518260400151935093509350509193909250565b60008060003373ffffffffffffffffffffffffffffffffffffffff1673ffffffffffffffffffffffffffffffffffffffff168152602001908152602001600020600001805461032390610a20565b90501415610366576040517f08c379a000000000000000000000000000000000000000000000000000000000815260040161035d906108ef565b60405180910390fd5b6040518060600160405280848152602001838152602001828152506000803373ffffffffffffffffffffffffffffffffffffffff1673ffffffffffffffffffffffffffffffffffffffff16815260200190815260200160002060008201518160000190805190602001906103db92919061060a565b5060208201518160010190805190602001906103f892919061060a565b50604082015181600201908051906020019061041592919061060a565b509050503373ffffffffffffffffffffffffffffffffffffffff167fa46c7e523e02abb4970939aabcfd675e1fcffc1ba1b50e9becf83848641effb8848484604051610463939291906108a3565b60405180910390a2505050565b60008060003373ffffffffffffffffffffffffffffffffffffffff1673ffffffffffffffffffffffffffffffffffffffff16815260200190815260200160002060000180546104be90610a20565b905014610500576040517f08c379a00000000000000000000000000000000000000000000000000000000081526004016104f79061090f565b60405180910390fd5b6040518060600160405280848152602001838152602001828152506000803373ffffffffffffffffffffffffffffffffffffffff1673ffffffffffffffffffffffffffffffffffffffff168152602001908152602001600020600082015181600001908051906020019061057592919061060a565b50602082015181600101908051906020019061059292919061060a565b5060408201518160020190805190602001906105af92919061060a565b509050503373ffffffffffffffffffffffffffffffffffffffff167f01b9c54f3367dcef6b36ad2742281e636b6406f2e9895adadc67194ad492d4d58484846040516105fd939291906108a3565b60405180910390a2505050565b82805461061690610a20565b90600052602060002090601f016020900481019282610638576000855561067f565b82601f1061065157805160ff191683800117855561067f565b8280016001018555821561067f579182015b8281111561067e578251825591602001919060010190610663565b5b50905061068c9190610690565b5090565b5b808211156106a9576000816000905550600101610691565b5090565b60006106c06106bb84610960565b61092f565b9050828152602081018484840111156106d857600080fd5b6106e38482856109de565b509392505050565b6000813590506106fa81610ac1565b92915050565b600082601f83011261071157600080fd5b81356107218482602086016106ad565b91505092915050565b60006020828403121561073c57600080fd5b600061074a848285016106eb565b91505092915050565b60008060006060848603121561076857600080fd5b600084013567ffffffffffffffff81111561078257600080fd5b61078e86828701610700565b935050602084013567ffffffffffffffff8111156107ab57600080fd5b6107b786828701610700565b925050604084013567ffffffffffffffff8111156107d457600080fd5b6107e086828701610700565b9150509250925092565b60006107f582610990565b6107ff818561099b565b935061080f8185602086016109ed565b61081881610ab0565b840191505092915050565b600061083060188361099b565b91507f4964656e74697479206e6f7420726567697374657265642e00000000000000006000830152602082019050919050565b6000610870601c8361099b565b91507f4964656e7469747920616c726561647920726567697374657265642e000000006000830152602082019050919050565b600060608201905081810360008301526108bd81866107ea565b905081810360208301526108d181856107ea565b905081810360408301526108e581846107ea565b9050949350505050565b6000602082019050818103600083015261090881610823565b9050919050565b6000602082019050818103600083015261092881610863565b9050919050565b6000604051905081810181811067ffffffffffffffff8211171561095657610955610a81565b5b8060405250919050565b600067ffffffffffffffff82111561097b5761097a610a81565b5b601f19601f8301169050602081019050919050565b600081519050919050565b600082825260208201905092915050565b60006109b7826109be565b9050919050565b600073ffffffffffffffffffffffffffffffffffffffff82169050919050565b82818337600083830152505050565b60005b83811015610a0b5780820151818401526020810190506109f0565b83811115610a1a576000848401525b50505050565b60006002820490506001821680610a3857607f821691505b60208210811415610a4c57610a4b610a52565b5b50919050565b7f4e487b7100000000000000000000000000000000000000000000000000000000600052602260045260246000fd5b7f4e487b7100000000000000000000000000000000000000000000000000000000600052604160045260246000fd5b6000601f19601f8301169050919050565b610aca816109ac565b8114610ad557600080fd5b5056fea26469706673582212206629334318d28781cffdff6a9d9da414279641d50d654d87c6ba32b3ce19dc4664736f6c63430008000033",
  "linkReferences": {},
  "deployedLinkReferences": {}
}