{
  "_format": "hh-sol-artifact-1",
  "contractName": "Identity",
  "sourceName": "contracts/Identity.sol",
  "abi": [
    {
      "inputs": [
        {
          "internalType": "address",
          "name": "_askerAddress",
          "type": "address"
        }
      ],
      "name": "authorizeAccess",
      "outputs": [],
      "stateMutability": "nonpayable",
      "type": "function"
    },
    {
      "inputs": [
        {
          "internalType": "address",
          "name": "_userAddress",
          "type": "address"
        }
      ],
      "name": "getIdentity",
      "outputs": [
        {
          "internalType": "string",
          "name": "",
          "type": "string"
        },
        {
          "internalType": "string",
          "name": "",
          "type": "string"
        },
        {
          "internalType": "string",
          "name": "",
          "type": "string"
        }
      ],
      "stateMutability": "view",
      "type": "function"
    },
    {
      "inputs": [
        {
          "internalType": "string",
          "name": "_name",
          "type": "string"
        },
        {
          "internalType": "string",
          "name": "_email",
          "type": "string"
        },
        {
          "internalType": "string",
          "name": "_phone",
          "type": "string"
        }
      ],
      "name": "registerIdentity",
      "outputs": [],
      "stateMutability": "nonpayable",
      "type": "function"
    },
    {
      "inputs": [
        {
          "internalType": "string",
          "name": "_name",
          "type": "string"
        },
        {
          "internalType": "string",
          "name": "_email",
          "type": "string"
        },
        {
          "internalType": "string",
          "name": "_phone",
          "type": "string"
        }
      ],
      "name": "updateIdentity",
      "outputs": [],
      "stateMutability": "nonpayable",
      "type": "function"
    }
  ],
  "bytecode": "0x608060405234801561001057600080fd5b50610b19806100206000396000f3fe608060405234801561001057600080fd5b506004361061004c5760003560e01c80632fea7b81146100515780639318ca6614610083578063bdc95b321461009f578063eed14218146100bb575b600080fd5b61006b6004803603810190610066919061076f565b6100d7565b60405161007a939291906108ce565b60405180910390f35b61009d60048036038101906100989190610798565b6103a7565b005b6100b960048036038101906100b49190610798565b6104ae565b005b6100d560048036038101906100d0919061076f565b6105b5565b005b60608060606000808573ffffffffffffffffffffffffffffffffffffffff1673ffffffffffffffffffffffffffffffffffffffff16815260200190815260200160002060030160003373ffffffffffffffffffffffffffffffffffffffff1673ffffffffffffffffffffffffffffffffffffffff16815260200190815260200160002060009054906101000a900460ff166101a7576040517f08c379a000000000000000000000000000000000000000000000000000000000815260040161019e9061091a565b60405180910390fd5b60008060008673ffffffffffffffffffffffffffffffffffffffff1673ffffffffffffffffffffffffffffffffffffffff168152602001908152602001600020905080600001816001018260020182805461020190610a2b565b80601f016020809104026020016040519081016040528092919081815260200182805461022d90610a2b565b801561027a5780601f1061024f5761010080835404028352916020019161027a565b820191906000526020600020905b81548152906001019060200180831161025d57829003601f168201915b5050505050925081805461028d90610a2b565b80601f01602080910402602001604051908101604052809291908181526020018280546102b990610a2b565b80156103065780601f106102db57610100808354040283529160200191610306565b820191906000526020600020905b8154815290600101906020018083116102e957829003601f168201915b5050505050915080805461031990610a2b565b80601f016020809104026020016040519081016040528092919081815260200182805461034590610a2b565b80156103925780601f1061036757610100808354040283529160200191610392565b820191906000526020600020905b81548152906001019060200180831161037557829003601f168201915b50505050509050935093509350509193909250565b826000803373ffffffffffffffffffffffffffffffffffffffff1673ffffffffffffffffffffffffffffffffffffffff16815260200190815260200160002060000190805190602001906103fc92919061064f565b50816000803373ffffffffffffffffffffffffffffffffffffffff1673ffffffffffffffffffffffffffffffffffffffff168152602001908152602001600020600101908051906020019061045292919061064f565b50806000803373ffffffffffffffffffffffffffffffffffffffff1673ffffffffffffffffffffffffffffffffffffffff16815260200190815260200160002060020190805190602001906104a892919061064f565b50505050565b826000803373ffffffffffffffffffffffffffffffffffffffff1673ffffffffffffffffffffffffffffffffffffffff168152602001908152602001600020600001908051906020019061050392919061064f565b50816000803373ffffffffffffffffffffffffffffffffffffffff1673ffffffffffffffffffffffffffffffffffffffff168152602001908152602001600020600101908051906020019061055992919061064f565b50806000803373ffffffffffffffffffffffffffffffffffffffff1673ffffffffffffffffffffffffffffffffffffffff16815260200190815260200160002060020190805190602001906105af92919061064f565b50505050565b60016000803373ffffffffffffffffffffffffffffffffffffffff1673ffffffffffffffffffffffffffffffffffffffff16815260200190815260200160002060030160008373ffffffffffffffffffffffffffffffffffffffff1673ffffffffffffffffffffffffffffffffffffffff16815260200190815260200160002060006101000a81548160ff02191690831515021790555050565b82805461065b90610a2b565b90600052602060002090601f01602090048101928261067d57600085556106c4565b82601f1061069657805160ff19168380011785556106c4565b828001600101855582156106c4579182015b828111156106c35782518255916020019190600101906106a8565b5b5090506106d191906106d5565b5090565b5b808211156106ee5760008160009055506001016106d6565b5090565b60006107056107008461096b565b61093a565b90508281526020810184848401111561071d57600080fd5b6107288482856109e9565b509392505050565b60008135905061073f81610acc565b92915050565b600082601f83011261075657600080fd5b81356107668482602086016106f2565b91505092915050565b60006020828403121561078157600080fd5b600061078f84828501610730565b91505092915050565b6000806000606084860312156107ad57600080fd5b600084013567ffffffffffffffff8111156107c757600080fd5b6107d386828701610745565b935050602084013567ffffffffffffffff8111156107f057600080fd5b6107fc86828701610745565b925050604084013567ffffffffffffffff81111561081957600080fd5b61082586828701610745565b9150509250925092565b600061083a8261099b565b61084481856109a6565b93506108548185602086016109f8565b61085d81610abb565b840191505092915050565b60006108756024836109a6565b91507f4e6f7420617574686f72697a656420746f20766965772074686973206964656e60008301527f74697479000000000000000000000000000000000000000000000000000000006020830152604082019050919050565b600060608201905081810360008301526108e8818661082f565b905081810360208301526108fc818561082f565b90508181036040830152610910818461082f565b9050949350505050565b6000602082019050818103600083015261093381610868565b9050919050565b6000604051905081810181811067ffffffffffffffff8211171561096157610960610a8c565b5b8060405250919050565b600067ffffffffffffffff82111561098657610985610a8c565b5b601f19601f8301169050602081019050919050565b600081519050919050565b600082825260208201905092915050565b60006109c2826109c9565b9050919050565b600073ffffffffffffffffffffffffffffffffffffffff82169050919050565b82818337600083830152505050565b60005b83811015610a165780820151818401526020810190506109fb565b83811115610a25576000848401525b50505050565b60006002820490506001821680610a4357607f821691505b60208210811415610a5757610a56610a5d565b5b50919050565b7f4e487b7100000000000000000000000000000000000000000000000000000000600052602260045260246000fd5b7f4e487b7100000000000000000000000000000000000000000000000000000000600052604160045260246000fd5b6000601f19601f8301169050919050565b610ad5816109b7565b8114610ae057600080fd5b5056fea26469706673582212209228dcd9c78246fd0d49f4d634fd385f64809cf09eca7643b2b0fb34f57b04f064736f6c63430008000033",
  "linkReferences": {},
  "deployedLinkReferences": {}
}